S0110000536D617274486F6D652E7372656383
S11300000C9434000C9451000C9451000C94510045
S11300100C940F0A0C94E6090C94A6090C947D091F
S11300200C9454090C942B090C94D5080C94AC082A
S11300300C9451000C9451000C9451000C945100F8
S11300400C94A4000C9451000C9451000C94510095
S11300500C945100B905BF05C505CB05D105D705DD
S1130060DD05E305E905EF0511241FBECFE5D8E062
S1130070DEBFCDBF12E0A0E6B0E0EAE4F8E102C0E2
S113008005900D92A633B107D9F722E0A6E3B2E0BA
S113009001C01D92AA34B207E1F70E940D040C942A
S11300A0230C0C9400003F983E9A3D9A80B78F77BA
S11300B080BF80B78F7B80BF80B78F7D80BF359A2C
S11300C03398329A319A3098379A0895FB01118205
S11300D0108290916000923069F591E090936000F5
S11300E0379897B1907E97B997B1892B87B9379A8A
S11300F0369A349914C080E090E0DC010196A11D89
S1130100B11D349907C08035F3EC9F07A105B105F3
S1130110A9F714C08035934CA105B10588F4349A2D
S113012085B190E0FB019183808382E0809360003D
S113013080E00895913031F080E008958FEF0895C4
S11301408FEF089583E008951F920F920FB60F92D8
S113015011242F933F934F935F936F937F938F93C8
S11301609F93AF93BF93EF93FF93E0913802F09185
S11301703902309751F085B190E090933702809323
S1130180360282E0809360000995FF91EF91BF9160
S1130190AF919F918F917F916F915F914F913F911B
S11301A02F910F900FBE0F901F9018950E94520A26
S11301B008950E945D0A08950F931F93CF93DF93D0
S11301C01F92CDB7DEB78C011982CE0101960E9431
S11301D0610A8981803310F0F80180830F90DF91E8
S11301E0CF911F910F9108951F93CF93DF93EC014B
S11301F08881882351F010E00E945D0A1F5FFE0190
S1130200E10FF11D80818111F7CFDF91CF911F9113
S11302100895CF92DF92EF92FF920F931F93CF93A3
S1130220DF931F92CDB7DEB78C01C62E19827C01F5
S1130230D12C0BC0CE0101960E94610A89818033C2
S113024038F0F70181937F01D394DC10F3CF02C01F
S1130250DC1480F3F801EC0DF11D10820F90DF9196
S1130260CF911F910F91FF90EF90DF90CF90089561
S113027041E0FC01618180810E94C60108951F93C1
S1130280CF93DF93EC0141E0698188810E94C6012C
S113029041E06A8188810E94C601182F88818230DA
S11302A041F48981833019F08A81833019F50E94E1
S11302B0950888818430F1F48981873019F08A8126
S11302C0873029F40E94CF098881843099F4898188
S11302D0853019F08A81853029F40E94FE088881CE
S11302E0843041F48981843019F08A81843011F496
S11302F00E94FE08812FDF91CF911F910895CF9323
S1130300DF93EC0141E0698188810E94FD0240E0B5
S11303106A8188810E94FD02DF91CF910895CF9375
S1130320DF93EC0140E06A8188810E94FD0240E095
S1130330698188810E94FD02DF91CF910895CF9356
S1130340DF93EC01423071F4462F50E069818881DB
S11303500E94380A40E050E06A8188810E94380A8D
S113036080E011C0413071F4462F50E06A818881E9
S11303700E94380A40E050E0698188810E94380A6E
S113038080E001C081E0DF91CF910895683008F0EA
S1130390EEC0413009F03FC08230B1F018F4813032
S11303A031F0E7C08330E9F0843041F1E2C04AB370
S11303B021E030E0C90102C0880F991F6A95E2F775
S11303C0842B8ABB80E0089547B321E030E0C90163
S11303D002C0880F991F6A95E2F7842B87BB80E0DF
S11303E0089544B321E030E0C90102C0880F991F89
S11303F06A95E2F7842B84BB80E0089541B321E041
S113040030E0C90102C0880F991F6A95E2F7842B76
S113041081BB80E00895423009F053C08230D9F0A6
S113042018F4813031F0A7C0833039F18430B9F148
S1130430A2C04AB321E030E0C90102C0880F991F6D
S11304406A95E2F78095982F94239ABB9BB38923EE
S11304508BBB80E0089547B321E030E0C90102C0BE
S1130460880F991F6A95E2F78095982F942397BB7C
S113047098B3892388BB80E0089544B321E030E039
S1130480C90102C0880F991F6A95E2F78095982FD9
S1130490942394BB95B3892385BB80E0089541B32D
S11304A021E030E0C90102C0880F991F6A95E2F784
S11304B08095982F942391BB92B3892382BB80E0CB
S11304C00895433009F059C08230D9F018F48130CE
S11304D031F055C0833039F18430B9F150C04AB39A
S11304E021E030E0C90102C0880F991F6A95E2F744
S11304F0982F909594239ABB9BB3892B8BBB80E058
S1130500089547B321E030E0C90102C0880F991F64
S11305106A95E2F7982F9095942397BB98B3892B0B
S113052088BB80E0089544B321E030E0C90102C0F3
S1130530880F991F6A95E2F7982F9095942394BB9E
S113054095B3892B85BB80E0089541B321E030E069
S1130550C90102C0880F991F6A95E2F7982F9095F8
S1130560942391BB92B3892B82BB80E0089581E0F0
S1130570089581E0089580E0089581E0089580E081
S113058008956F3FD9F4823069F018F4813031F066
S11305902EC0833059F0843069F029C08FEF8ABBB4
S11305A080E008958FEF87BB80E008958FEF84BBD0
S11305B080E008958FEF81BB80E00895611119C038
S11305C0823061F018F4813031F015C0833049F085
S11305D0843051F010C01ABA80E0089517BA80E050
S11305E0089514BA80E0089511BA80E0089581E076
S11305F0089581E0089581E00895683008F08FC07F
S1130600413009F043C08230B9F018F4813031F040
S113061088C08330F9F0843059F183C02BB381E072
S113062090E0AC0102C0440F551F6A95E2F7BA018D
S1130630622B6BBB80E0089528B381E090E0AC01AD
S113064002C0440F551F6A95E2F7BA01622B68BBDA
S113065080E0089525B381E090E0AC0102C0440F2E
S1130660551F6A95E2F7BA01622B65BB80E00895D5
S113067022B381E090E0AC0102C0440F551F6A959B
S1130680E2F7BA01622B62BB80E0089541114BC0CE
S11306908230C1F018F4813031F047C0833009F161
S11306A0843071F142C02BB381E090E0AC0102C010
S11306B0440F551F6A95E2F7BA01609562236BBB3C
S11306C080E0089528B381E090E0AC0102C0440FBB
S11306D0551F6A95E2F7BA016095622368BB80E012
S11306E0089525B381E090E0AC0102C0440F551F8A
S11306F06A95E2F7BA016095622365BB80E00895CC
S113070022B381E090E0AC0102C0440F551F6A950A
S1130710E2F7BA016095622362BB80E0089581E04C
S1130720089581E0089581E0089581E0089582307C
S113073061F018F4813031F011C0833049F0843015
S113074051F00CC06BBB80E0089568BB80E0089555
S113075065BB80E0089562BB80E0089581E0089560
S113076042E0FC01618180810E94C601089541E05C
S1130770FC01618180810E94C6010E94530008959A
S1130780FC0181810E9466000895CF93DF93EC0100
S113079041E0698188810E94C6018A81813019F013
S11307A0823039F00CC040E0698188810E94FD02EA
S11307B007C041E0698188810E94FD0201C081E097
S11307C0DF91CF910895FC018281813019F082304C
S11307D039F00CC041E0618180810E94FD020895DE
S11307E040E0618180810E94FD02089581E00895C6
S11307F0FC018281813019F0823039F00CC040E074
S1130800618180810E94FD02089541E061818081BF
S11308100E94FD02089581E00895CF93DF93CDB740
S1130820DEB7A7970FB6F894DEBF0FBECDBF84E046
S1130830898395E09A838B838C8397E09D8323E05F
S11308402E8391E09F83888732E039878A8736E058
S11308503B878C872D879E879F879DA31EA2CE01F1
S113086001960E944805CE0103960E943F01CE01E5
S11308700A960E943801CE0108960E943305CE01E3
S11308800C960E94B003CE010E960E9452080E945C
S1130890D600CE0106960E949305FE01729680E072
S11308A022E091E0DF0112972C9311968C939083B0
S11308B08F5F33968830B1F78E01005F1F4F7E0142
S11308C085E2E80EF11CC8010E94C5030D5F1F4FAD
S11308D00E151F05C1F7CE0185960E94B7031FA20E
S11308E0CE0106960E940C06813009F0AFC010E0DC
S11308F000E081E00E940F081FA2CE0187960E94AB
S1130900DC008FA10E94D90084EA90E00E94F400E8
S11309108FA1863441F0843491F18C3409F44EC0B3
S1130920853459F775C082E00E940F081FA2CE01DA
S113093087960E94DC008FA10E94D90084EA90E08F
S11309400E94F4008FA18F3429F0833449F0843558
S113095071F70CC0CE0103960E949D0610E062C0A0
S1130960CE0103960E94A00610E05CC0BE01625F47
S11309707F4FCE0103960E94A30611E053C083E08B
S11309800E940F081FA2CE0187960E94DC008FA14F
S11309900E94D90084EA90E00E94F4008FA18F3471
S11309A019F0833481F705C0CE0101960E949506A3
S11309B039C0CE0101960E94990634C084E00E9499
S11309C00F081FA2CE0187960E94DC008FA10E940F
S11309D0D90084EA90E00E94F4008FA18F3429F0BA
S11309E0833441F08E3471F70AC0CE0108960E9418
S11309F0DA0637C0CE0108960E94DD0632C0BE0179
S1130A006B5D7F4FCE0140960E94E00601E00CC072
S1130A101FA2CE0108960E94DD06CE0101960E9417
S1130A2099065ECF013039F4BE016B5D7F4FCE0174
S1130A3040960E94E006113009F05BCFBE01625F70
S1130A407F4FCE0103960E94A30653CF811148CF56
S1130A5081E690E00E94F400CE0106960E94F7051C
S1130A603FCF00E0E8CF41E0FC01618180810E943A
S1130A70C601089541E0FC01618180810E94FD026C
S1130A80089540E0FC01618180810E94FD02089587
S1130A901F93CF93DF93EC0141E0698188810E9429
S1130AA0C601182F0E94FE088881843071F4898160
S1130AB0843029F480E29EE40E94220906C0853035
S1130AC021F480E29EE40E942209812FDF91CF91DC
S1130AD01F910895CF93DF93EC0188818430F9F45A
S1130AE070E080E090E00E94080B26E237EC41EBD6
S1130AF050E40E94940B20E030E04AE754E40E9462
S1130B00760A0E94DA0A2981243021F4CB010E945A
S1130B10280905C0253019F4CB010E94250980E07D
S1130B20DF91CF910895CF93DF93EC016FEF88812C
S1130B300E94C1028981813019F0823031F00AC0EB
S1130B4060E088810E94970306C06FEF88810E944D
S1130B50970301C081E0DF91CF910895462F50E0C3
S1130B604A30510508F041C0FA01E65DFF4F0C948C
S1130B70F70B6FE3FC0180810E949703089566E000
S1130B80FC0180810E94970308956BE5FC0180813C
S1130B900E94970308956FE4FC0180810E949703EB
S1130BA0089566E6FC0180810E94970308956DE62E
S1130BB0FC0180810E94970308956DE7FC01808108
S1130BC00E949703089567E0FC0180810E949703C7
S1130BD008956FE7FC0180810E94970308956FE6F2
S1130BE0FC0180810E949703089581E00895FC012F
S1130BF02181213019F0223039F00CC060E0FC0171
S1130C0080810E94970308956FEFFC0180810E9408
S1130C109703089581E00895AF92BF92DF92EF9217
S1130C201F93CF93DF9300D000D0CDB7DEB75C0124
S1130C3019821A821B821C8280E389838A838B83B4
S1130C40E12C0F2EF3E0DF2EF02D6D2D6E19C50172
S1130C500E94AE0588E790E00E94F40085EC90E0E5
S1130C600E94F40086E990E00E94F4006D2DCE010C
S1130C7001960E940901CE0101960E94F400CE0162
S1130C8001960E94FD0B182F0E94D9001B3781F496
S1130C9086EA90E00E94F40084EB90E00E94F40065
S1130CA084EC90E00E94F400C5010E94F7052CC07A
S1130CB0183781F486EA90E00E94F40089EE90E00F
S1130CC00E94F40084EC90E00E94F400C5010E94AC
S1130CD0F7051AC01E3681F486EA90E00E94F400FB
S1130CE089EF90E00E94F40084EC90E00E94F4000C
S1130CF0C5010E94F70508C08AE091E00E94F40053
S1130D00E39483E0E812A1CF81E093E0E91201C00B
S1130D1080E00F900F900F900F90DF91CF911F9173
S1130D20EF90DF90BF90AF9008956FEF0E946A0537
S1130D30089560E00E946A0508950E947F01089565
S1130D400E948F0108950F931F93CF93DF931F92F7
S1130D50CDB7DEB78C01CB011982BE016F5F7F4F27
S1130D600E945F0889818E3140F4C8010E948F017E
S1130D7085E191E00E94F40017C092EE980F95303F
S1130D8050F441E060E8C8010E949F0181E291E0D3
S1130D900E94F40009C0833238F0C8010E947F0128
S1130DA084E391E00E94F4000F90DF91CF911F91B2
S1130DB00F9108950E943A0508950E9441050895EF
S1130DC00F931F93CF93DF931F92CDB7DEB78C01A0
S1130DD0CB011982BE016F5F7F4F0E94C0038981DE
S1130DE0803200F5C8010E94E303C80103960E9403
S1130DF0F803C80106960E94F803C80109960E94E8
S1130E00F803C8010C960E94F803C8010F960E94CB
S1130E10F803C80142960E94F803C80145960E944F
S1130E20F803F7C0803400F5C8010E94E303C80149
S1130E3003960E94E303C80106960E94F803C801C2
S1130E4009960E94F803C8010C960E94F803C80191
S1130E500F960E94F803C80142960E94F803C80145
S1130E6045960E94F803D5C090EC980F903200F597
S1130E70C8010E94E303C80103960E94E303C8016A
S1130E8006960E94E303C80109960E94F803C8016C
S1130E900C960E94F803C8010F960E94F803C8013B
S1130EA042960E94F803C80145960E94F803B1C017
S1130EB090EA980F903200F5C8010E94E303C8013C
S1130EC003960E94E303C80106960E94E303C80147
S1130ED009960E94E303C8010C960E94F803C80116
S1130EE00F960E94F803C80142960E94F803C801B5
S1130EF045960E94F8038DC090E8980F903200F553
S1130F00C8010E94E303C80103960E94E303C801D9
S1130F1006960E94E303C80109960E94E303C801F0
S1130F200C960E94E303C8010F960E94F803C801BF
S1130F3042960E94F803C80145960E94F80369C0CE
S1130F4090E6980F903200F5C8010E94E303C801AF
S1130F5003960E94E303C80106960E94E303C801B6
S1130F6009960E94E303C8010C960E94E303C8019A
S1130F700F960E94E303C80142960E94F803C80139
S1130F8045960E94F80345C090E4980F903200F50E
S1130F90C8010E94E303C80103960E94E303C80149
S1130FA006960E94E303C80109960E94E303C80160
S1130FB00C960E94E303C8010F960E94E303C80144
S1130FC042960E94E303C80145960E94F80321C09B
S1130FD0803EF8F0C8010E94E303C80103960E9412
S1130FE0E303C80106960E94E303C80109960E9420
S1130FF0E303C8010C960E94E303C8010F960E9404
S1131000E303C80142960E94E303C80145960E9487
S1131010E3030F90DF91CF911F910F9108958230D8
S1131020F1F018F4813031F00895833029F18430DF
S113103061F1089587E491E00E94F40087E691E06D
S11310400E94F40087E791E00E94F40088E891E0B0
S11310500E94F40081EA91E00E94F40008958BEA72
S113106091E00E94F40088EB91E00E94F40086EC89
S113107091E00E94F400089587EE91E00E94F4004C
S113108085EF91E00E94F400089584E092E00E94CC
S1131090F40085E192E00E94F40087E292E00E946D
S11310A0F4000895CF9342E0FC01618180810E94A5
S11310B0C601C82F0E9453008C2FCF910895FF9230
S11310C00F931F93CF93DF9300D0CDB7DEB78B017F
S11310D01A821982BE016F5F7F4FFC0181810E94D9
S11310E06600F82E69817A8180E090E00E94060B08
S11310F020E030E040EA50E40E94940B20E030E02D
S113110040E85BE30E94940B0E94DA0A84E6869F1F
S1131110602D1124F80160838F2D0F900F90DF91C3
S1131120CF911F910F91FF90089583B7886083BF7B
S113113083B7806483BF83B7806283BF83B78F7EA6
S113114083BFBB9A83B78B7F83BF83B7826083BF20
S113115083B78E7F83BF08951F920F920FB60F92AD
S113116011242F933F934F935F936F937F938F93A8
S11311709F93AF93BF93EF93FF93E0914602F09157
S11311804702309709F00995FF91EF91BF91AF9114
S11311909F918F917F916F915F914F913F912F918B
S11311A00F900FBE0F901F9018951F920F920FB6BD
S11311B00F9211242F933F934F935F936F937F93D9
S11311C08F939F93AF93BF93EF93FF93E091480264
S11311D0F0914902309709F00995FF91EF91BF9181
S11311E0AF919F918F917F916F915F914F913F91BB
S11311F02F910F900FBE0F901F9018958FB58E7F73
S11312008FBD8FB582608FBD8EB588608EBD8EB563
S113121080618EBD8FB580688FBD8FB58F7B8FBD8C
S11312208D9A8FB58F7D8FBD8FB58F7E8FBD8C9A34
S11312308EB58B7F8EBD8EB582608EBD8EB58E7F52
S11312408EBD089597BD86BD08959BBD8ABD089542
S113125099BD88BD08951F920F920FB60F92112465
S11312602F933F934F935F936F937F938F939F93AA
S1131270AF93BF93EF93FF93E0914402F091450243
S1131280309709F00995FF91EF91BF91AF919F912C
S11312908F917F916F915F914F913F912F910F901B
S11312A00FBE0F901F9018951F920F920FB60F92BA
S11312B011242F933F934F935F936F937F938F9357
S11312C09F93AF93BF93EF93FF93E0914002F0910C
S11312D04102309709F00995FF91EF91BF91AF91C9
S11312E09F918F917F916F915F914F913F912F913A
S11312F00F900FBE0F901F9018951F920F920FB66C
S11313000F9211242F933F934F935F936F937F9387
S11313108F939F93AF93BF93EF93FF93E091420218
S1131320F0914302309709F00995FF91EF91BF9135
S1131330AF919F918F917F916F915F914F913F9169
S11313402F910F900FBE0F901F9018951F920F9220
S11313500FB60F9211242F933F934F935F936F9384
S11313607F938F939F93AF93BF93EF93FF93E091FA
S11313703E02F0913F02309709F00995FF91EF91F9
S1131380BF91AF919F918F917F916F915F914F9199
S11313903F912F910F900FBE0F901F90189585B518
S11313A0886085BD85B5806485BD85B5806285BD51
S11313B085B58F7E85BD8F9A85B58B7F85BD85B5B7
S11313C0826085BD85B58E7F85BD08951F920F927D
S11313D00FB60F9211242F933F934F935F936F9304
S11313E07F938F939F93AF93BF93EF93FF93E0917A
S11313F03A02F0913B02309709F00995FF91EF9181
S1131400BF91AF919F918F917F916F915F914F9118
S11314103F912F910F900FBE0F901F9018951F9220
S11314200F920FB60F9211242F933F934F935F9314
S11314306F937F938F939F93AF93BF93EF93FF9398
S1131440E0913C02F0913D02309709F00995FF913B
S1131450EF91BF91AF919F918F917F916F915F9128
S11314604F913F912F910F900FBE0F901F901895A1
S1131470823021F46330A9F44CBF0895843089F498
S1131480653029F4842F952F0E942509089564302E
S113149029F4842F952F0E9428090895673009F4B0
S11314A043BD0895599883E389B910BC5898539A59
S11314B0549A529886E880BD08955D9BFECF8CB9FE
S11314C008955F9BFECF5C9909C05A9909C05B9946
S11314D009C02CB1FC01208380E005C08FEF03C05C
S11314E08DEF01C08EEF5F9A08955058BB27AA274D
S11314F00ED0E0C0D1D030F0D6D020F031F49F3FF0
S113150011F41EF4C6C00EF4E095E7FBBCC0E92F4D
S1131510E2D080F3BA17620773078407950718F0BF
S113152071F49EF5FAC00EF4E0950B2EBA2FA02D9F
S11315300B01B90190010C01CA01A0011124FF277C
S1131540591B99F0593F50F4503E68F11A16F04077
S1131550A22F232F342F4427585FF3CF4695379576
S11315602795A795F0405395C9F77EF41F16BA0B3B
S1131570620B730B840BBAF09150A1F0FF0FBB1FE9
S1131580661F771F881FC2F70EC0BA0F621F731F32
S1131590841F48F4879577956795B795F7959E3F8F
S11315A008F0B3CF9395880F08F09927EE0F97951D
S11315B08795089598D088F09F5790F0B92F992770
S11315C0B751A0F0D1F0660F771F881F991F1AF04A
S11315D0BA95C9F712C0B13081F09FD0B1E0089537
S11315E09CC0672F782F8827B85F39F0B93FCCF3B8
S11315F0869577956795B395D9F73EF49095809540
S1131600709561957F4F8F4F9F4F0895E89409C05F
S113161097FB3EF490958095709561957F4F8F4F21
S11316209F4F9923A9F0F92F96E9BB279395F69537
S1131630879577956795B795F111F8CFFAF4BB0FB5
S113164011F460FF1BC06F5F7F4F8F4F9F4F16C019
S1131650882311F096E911C0772321F09EE8872FA3
S1131660762F05C0662371F096E8862F70E060E05F
S11316702AF09A95660F771F881FDAF7880F9695D8
S1131680879597F9089597F99F6780E870E060E07F
S113169008959FEF80EC089500240A941616170607
S11316A018060906089500240A941216130614064F
S11316B005060895092E0394000C11F4882352F0B2
S11316C0BB0F40F4BF2B11F460FF04C06F5F7F4F6A
S11316D08F4F9F4F089557FD9058440F551F59F051
S11316E05F3F71F04795880F97FB991F61F09F3F0B
S11316F079F087950895121613061406551FF2CF34
S11317004695F1DF08C0161617061806991FF1CF83
S113171086957105610508940895E894BB276627AA
S11317207727CB0197F908950BD0C4CFB5DF28F004
S1131730BADF18F0952309F0A6CFABCF1124EECF72
S1131740CADFA0F3959FD1F3950F50E0551F629F18
S1131750F001729FBB27F00DB11D639FAA27F00D06
S1131760B11DAA1F649F6627B00DA11D661F829F2D
S11317702227B00DA11D621F739FB00DA11D621F12
S1131780839FA00D611D221F749F3327A00D611D2F
S1131790231F849F600D211D822F762F6A2F112411
S11317A09F5750408AF0E1F088234AF0EE0FFF1F64
S11317B0BB1F661F771F881F91505040A9F79E3F9B
S11317C0510570F060CFAACF5F3FECF3983EDCF395
S11317D0869577956795B795F795E7959F5FC1F7D8
S11317E0FE2B880F911D9695879597F90895EE0F16
S11317F0FF1F0590F491E02D0994FC018827992797
S1131800E89421912032E9F3293010F02E30C8F306
S11318102B3241F02D3239F4689404C00E941B0C21
S1131820820F911D219120532A30C0F31EF490950C
S113183081959F4F08957AE0979F902D879F802DE3
S10D1840910D11240895F894FFCFD0
S113184A020A594F55522049442049534E4F5420B5
S113185A4558534953540A0057656C636F6D6520A4
S113186A746F20736D61727420686F6D652073796B
S113187A7374656D0A00456E74657220796F7572AA
S113188A204944200A000A57656C636F6D65204D30
S113189A723A200041626465726C686D616E20421E
S11318AA616472000A2A2A2A2A2A2A2A2A2A2A2A1B
S11318BA2A2A2A2A2A2A2A2A2A2A2A2A2A2A2A2A7A
S11318CA2A2A2A2A2A2A2A0A004D6F68616D65641F
S11318DA204D61727A6F756B00416264656C6C614C
S11318EA746966204D61686572000A4572726F7286
S11318FA2049440A0046414E204953204F46460A8D
S113190A0046414E2049532048414C4620535045F5
S113191A45440A0046414E2049532046554C4C2022
S113192A53504545440A005768617420646F20790E
S113193A6F752077616E7420746F20636F6E747292
S113194A6F6C203F210A00463A20436F6E74726F0F
S113195A6C2046616E0A00443A20436F6E74726FBB
S113196A6C20446F6F720A004C3A20436F6E747293
S113197A6F6C204C696768742073797374656D0A97
S113198A00453A2045786973740A004F3A204F702B
S113199A656E2046616E0A00433A20436C6F736594
S11319AA2046616E0A00543A20436F6E74726F6C5B
S11319BA2066616E20776974682074656D7065723B
S11319CA61747572650A004F3A204F70656E20443F
S11319DA6F6F720A00433A20436C6F736520446F39
S11319EA6F720A004F3A205475726E204F6E204C63
S11319FA616D700A00433A205475726E204F666610
S1131A0A204C616D700A004E3A204E696768742052
S1091A1A4D6F64650A0033
S9030000FC
